{
  "contractName": "CertificateContract",
  "abi": [
    {
      "anonymous": false,
      "inputs": [
        {
          "indexed": true,
          "internalType": "address",
          "name": "participant",
          "type": "address"
        },
        {
          "indexed": false,
          "internalType": "string",
          "name": "nomeEvento",
          "type": "string"
        },
        {
          "indexed": false,
          "internalType": "string",
          "name": "horasComplementares",
          "type": "string"
        },
        {
          "indexed": false,
          "internalType": "string",
          "name": "nomeParticipante",
          "type": "string"
        }
      ],
      "name": "CertificateIssued",
      "type": "event"
    },
    {
      "inputs": [
        {
          "internalType": "address",
          "name": "",
          "type": "address"
        },
        {
          "internalType": "uint256",
          "name": "",
          "type": "uint256"
        }
      ],
      "name": "certificates",
      "outputs": [
        {
          "internalType": "string",
          "name": "nomeEvento",
          "type": "string"
        },
        {
          "internalType": "string",
          "name": "horasComplementares",
          "type": "string"
        },
        {
          "internalType": "string",
          "name": "nomeParticipante",
          "type": "string"
        }
      ],
      "stateMutability": "view",
      "type": "function",
      "constant": true
    },
    {
      "inputs": [
        {
          "internalType": "address",
          "name": "_participant",
          "type": "address"
        },
        {
          "internalType": "string",
          "name": "_nomeEvento",
          "type": "string"
        },
        {
          "internalType": "string",
          "name": "_horasComplementares",
          "type": "string"
        },
        {
          "internalType": "string",
          "name": "_nomeParticipante",
          "type": "string"
        }
      ],
      "name": "gerarCertificado",
      "outputs": [],
      "stateMutability": "nonpayable",
      "type": "function"
    },
    {
      "inputs": [
        {
          "internalType": "address",
          "name": "_participant",
          "type": "address"
        },
        {
          "internalType": "uint256",
          "name": "index",
          "type": "uint256"
        }
      ],
      "name": "getCertificado",
      "outputs": [
        {
          "internalType": "string",
          "name": "",
          "type": "string"
        },
        {
          "internalType": "string",
          "name": "",
          "type": "string"
        },
        {
          "internalType": "string",
          "name": "",
          "type": "string"
        }
      ],
      "stateMutability": "view",
      "type": "function",
      "constant": true
    },
    {
      "inputs": [
        {
          "internalType": "address",
          "name": "_participant",
          "type": "address"
        }
      ],
      "name": "getNumberOfCertificates",
      "outputs": [
        {
          "internalType": "uint256",
          "name": "",
          "type": "uint256"
        }
      ],
      "stateMutability": "view",
      "type": "function",
      "constant": true
    }
  ],
  "bytecode": "0x608060405234801561000f575f80fd5b50610e628061001d5f395ff3fe608060405234801561000f575f80fd5b506004361061004a575f3560e01c806346f3141c1461004e5780635d38b21614610080578063831b2fb6146100b0578063df0b0b05146100cc575b5f80fd5b61006860048036038101906100639190610785565b6100fe565b6040516100779392919061084d565b60405180910390f35b61009a60048036038101906100959190610897565b6102cf565b6040516100a791906108d1565b60405180910390f35b6100ca60048036038101906100c59190610a16565b610317565b005b6100e660048036038101906100e19190610785565b61042e565b6040516100f59392919061084d565b60405180910390f35b5f602052815f5260405f208181548110610116575f80fd5b905f5260205f2090600302015f9150915050805f01805461013690610afb565b80601f016020809104026020016040519081016040528092919081815260200182805461016290610afb565b80156101ad5780601f10610184576101008083540402835291602001916101ad565b820191905f5260205f20905b81548152906001019060200180831161019057829003601f168201915b5050505050908060010180546101c290610afb565b80601f01602080910402602001604051908101604052809291908181526020018280546101ee90610afb565b80156102395780601f1061021057610100808354040283529160200191610239565b820191905f5260205f20905b81548152906001019060200180831161021c57829003601f168201915b50505050509080600201805461024e90610afb565b80601f016020809104026020016040519081016040528092919081815260200182805461027a90610afb565b80156102c55780601f1061029c576101008083540402835291602001916102c5565b820191905f5260205f20905b8154815290600101906020018083116102a857829003601f168201915b5050505050905083565b5f805f8373ffffffffffffffffffffffffffffffffffffffff1673ffffffffffffffffffffffffffffffffffffffff1681526020019081526020015f20805490509050919050565b5f808573ffffffffffffffffffffffffffffffffffffffff1673ffffffffffffffffffffffffffffffffffffffff1681526020019081526020015f20604051806060016040528085815260200184815260200183815250908060018154018082558091505060019003905f5260205f2090600302015f909190919091505f820151815f0190816103a79190610cc8565b5060208201518160010190816103bd9190610cc8565b5060408201518160020190816103d39190610cc8565b5050508373ffffffffffffffffffffffffffffffffffffffff167f8b36d8248ba6d8e404fc4024ee91be8671bdbb919ec21ee0d7d1b02bcc4afd558484846040516104209392919061084d565b60405180910390a250505050565b60608060605f808673ffffffffffffffffffffffffffffffffffffffff1673ffffffffffffffffffffffffffffffffffffffff1681526020019081526020015f208054905084106104b4576040517f08c379a00000000000000000000000000000000000000000000000000000000081526004016104ab90610de1565b60405180910390fd5b5f805f8773ffffffffffffffffffffffffffffffffffffffff1673ffffffffffffffffffffffffffffffffffffffff1681526020019081526020015f20858154811061050357610502610dff565b5b905f5260205f2090600302016040518060600160405290815f8201805461052990610afb565b80601f016020809104026020016040519081016040528092919081815260200182805461055590610afb565b80156105a05780601f10610577576101008083540402835291602001916105a0565b820191905f5260205f20905b81548152906001019060200180831161058357829003601f168201915b505050505081526020016001820180546105b990610afb565b80601f01602080910402602001604051908101604052809291908181526020018280546105e590610afb565b80156106305780601f1061060757610100808354040283529160200191610630565b820191905f5260205f20905b81548152906001019060200180831161061357829003601f168201915b5050505050815260200160028201805461064990610afb565b80601f016020809104026020016040519081016040528092919081815260200182805461067590610afb565b80156106c05780601f10610697576101008083540402835291602001916106c0565b820191905f5260205f20905b8154815290600101906020018083116106a357829003601f168201915b5050505050815250509050805f015181602001518260400151935093509350509250925092565b5f604051905090565b5f80fd5b5f80fd5b5f73ffffffffffffffffffffffffffffffffffffffff82169050919050565b5f610721826106f8565b9050919050565b61073181610717565b811461073b575f80fd5b50565b5f8135905061074c81610728565b92915050565b5f819050919050565b61076481610752565b811461076e575f80fd5b50565b5f8135905061077f8161075b565b92915050565b5f806040838503121561079b5761079a6106f0565b5b5f6107a88582860161073e565b92505060206107b985828601610771565b9150509250929050565b5f81519050919050565b5f82825260208201905092915050565b5f5b838110156107fa5780820151818401526020810190506107df565b5f8484015250505050565b5f601f19601f8301169050919050565b5f61081f826107c3565b61082981856107cd565b93506108398185602086016107dd565b61084281610805565b840191505092915050565b5f6060820190508181035f8301526108658186610815565b905081810360208301526108798185610815565b9050818103604083015261088d8184610815565b9050949350505050565b5f602082840312156108ac576108ab6106f0565b5b5f6108b98482850161073e565b91505092915050565b6108cb81610752565b82525050565b5f6020820190506108e45f8301846108c2565b92915050565b5f80fd5b5f80fd5b7f4e487b71000000000000000000000000000000000000000000000000000000005f52604160045260245ffd5b61092882610805565b810181811067ffffffffffffffff82111715610947576109466108f2565b5b80604052505050565b5f6109596106e7565b9050610965828261091f565b919050565b5f67ffffffffffffffff821115610984576109836108f2565b5b61098d82610805565b9050602081019050919050565b828183375f83830152505050565b5f6109ba6109b58461096a565b610950565b9050828152602081018484840111156109d6576109d56108ee565b5b6109e184828561099a565b509392505050565b5f82601f8301126109fd576109fc6108ea565b5b8135610a0d8482602086016109a8565b91505092915050565b5f805f8060808587031215610a2e57610a2d6106f0565b5b5f610a3b8782880161073e565b945050602085013567ffffffffffffffff811115610a5c57610a5b6106f4565b5b610a68878288016109e9565b935050604085013567ffffffffffffffff811115610a8957610a886106f4565b5b610a95878288016109e9565b925050606085013567ffffffffffffffff811115610ab657610ab56106f4565b5b610ac2878288016109e9565b91505092959194509250565b7f4e487b71000000000000000000000000000000000000000000000000000000005f52602260045260245ffd5b5f6002820490506001821680610b1257607f821691505b602082108103610b2557610b24610ace565b5b50919050565b5f819050815f5260205f209050919050565b5f6020601f8301049050919050565b5f82821b905092915050565b5f60088302610b877fffffffffffffffffffffffffffffffffffffffffffffffffffffffffffffffff82610b4c565b610b918683610b4c565b95508019841693508086168417925050509392505050565b5f819050919050565b5f610bcc610bc7610bc284610752565b610ba9565b610752565b9050919050565b5f819050919050565b610be583610bb2565b610bf9610bf182610bd3565b848454610b58565b825550505050565b5f90565b610c0d610c01565b610c18818484610bdc565b505050565b5b81811015610c3b57610c305f82610c05565b600181019050610c1e565b5050565b601f821115610c8057610c5181610b2b565b610c5a84610b3d565b81016020851015610c69578190505b610c7d610c7585610b3d565b830182610c1d565b50505b505050565b5f82821c905092915050565b5f610ca05f1984600802610c85565b1980831691505092915050565b5f610cb88383610c91565b9150826002028217905092915050565b610cd1826107c3565b67ffffffffffffffff811115610cea57610ce96108f2565b5b610cf48254610afb565b610cff828285610c3f565b5f60209050601f831160018114610d30575f8415610d1e578287015190505b610d288582610cad565b865550610d8f565b601f198416610d3e86610b2b565b5f5b82811015610d6557848901518255600182019150602085019450602081019050610d40565b86831015610d825784890151610d7e601f891682610c91565b8355505b6001600288020188555050505b505050505050565b7f436572746966696361646f206e616f20656e636f6e747261646f0000000000005f82015250565b5f610dcb601a836107cd565b9150610dd682610d97565b602082019050919050565b5f6020820190508181035f830152610df881610dbf565b9050919050565b7f4e487b71000000000000000000000000000000000000000000000000000000005f52603260045260245ffdfea26469706673582212206d4ff18653547b7b893655de06d94e6781435fee003462b27d3d875a8dc7c19264736f6c63430008150033",
  "immutableReferences": {},
  "source": "// SPDX-License-Identifier: MIT\r\npragma solidity ^0.8.0;\r\n\r\ncontract CertificateContract {\r\n    struct Certificate {\r\n        string nomeEvento;\r\n        string horasComplementares; // Agora  string\r\n        string nomeParticipante;\r\n    }\r\n\r\n    // Mapeamento de endereo para uma lista de certificados\r\n    mapping(address => Certificate[]) public certificates;\r\n\r\n    event CertificateIssued(address indexed participant, string nomeEvento, string horasComplementares, string nomeParticipante);\r\n\r\n    function gerarCertificado(address _participant, string memory _nomeEvento, string memory _horasComplementares, string memory _nomeParticipante) public {\r\n        // Adiciona um novo certificado  lista do participante\r\n        certificates[_participant].push(Certificate({\r\n            nomeEvento: _nomeEvento,\r\n            horasComplementares: _horasComplementares,\r\n            nomeParticipante: _nomeParticipante\r\n        }));\r\n\r\n        emit CertificateIssued(_participant, _nomeEvento, _horasComplementares, _nomeParticipante);\r\n    }\r\n\r\n    function getCertificado(address _participant, uint index) public view returns (string memory, string memory, string memory) {\r\n        require(index < certificates[_participant].length, \"Certificado nao encontrado\");\r\n        Certificate memory cert = certificates[_participant][index];\r\n        return (cert.nomeEvento, cert.horasComplementares, cert.nomeParticipante);\r\n    }\r\n\r\n    function getNumberOfCertificates(address _participant) public view returns (uint) {\r\n        return certificates[_participant].length;\r\n    }\r\n}\r\n",
  "sourcePath": "C:\\Users\\paulo\\OneDrive\\Documentos\\repositorios\\Segurana\\contracts\\Evento.sol",
  "compiler": {
    "name": "solc",
    "version": "0.8.21+commit.d9974bed.Emscripten.clang"
  },
  "schemaVersion": "3.4.16",
  "updatedAt": "2024-06-18T22:27:18.534Z",
  "networkType": "ethereum",
  "devdoc": {
    "kind": "dev",
    "methods": {},
    "version": 1
  },
  "userdoc": {
    "kind": "user",
    "methods": {},
    "version": 1
  }
}