{
  "contractName": "CertificateContract",
  "abi": [
    {
      "anonymous": false,
      "inputs": [
        {
          "indexed": true,
          "internalType": "address",
          "name": "participant",
          "type": "address"
        },
        {
          "indexed": false,
          "internalType": "string",
          "name": "nomeEvento",
          "type": "string"
        },
        {
          "indexed": false,
          "internalType": "uint256",
          "name": "horasComplementares",
          "type": "uint256"
        },
        {
          "indexed": false,
          "internalType": "string",
          "name": "nomeParticipante",
          "type": "string"
        }
      ],
      "name": "CertificateIssued",
      "type": "event"
    },
    {
      "inputs": [
        {
          "internalType": "address",
          "name": "",
          "type": "address"
        }
      ],
      "name": "certificates",
      "outputs": [
        {
          "internalType": "string",
          "name": "nomeEvento",
          "type": "string"
        },
        {
          "internalType": "uint256",
          "name": "horasComplementares",
          "type": "uint256"
        },
        {
          "internalType": "string",
          "name": "nomeParticipante",
          "type": "string"
        },
        {
          "internalType": "bool",
          "name": "exists",
          "type": "bool"
        }
      ],
      "stateMutability": "view",
      "type": "function",
      "constant": true
    },
    {
      "inputs": [
        {
          "internalType": "address",
          "name": "_participant",
          "type": "address"
        },
        {
          "internalType": "string",
          "name": "_nomeEvento",
          "type": "string"
        },
        {
          "internalType": "uint256",
          "name": "_horasComplementares",
          "type": "uint256"
        },
        {
          "internalType": "string",
          "name": "_nomeParticipante",
          "type": "string"
        }
      ],
      "name": "gerarCertificado",
      "outputs": [],
      "stateMutability": "nonpayable",
      "type": "function"
    },
    {
      "inputs": [
        {
          "internalType": "address",
          "name": "_participant",
          "type": "address"
        }
      ],
      "name": "validarCertificado",
      "outputs": [
        {
          "internalType": "bool",
          "name": "",
          "type": "bool"
        }
      ],
      "stateMutability": "view",
      "type": "function",
      "constant": true
    },
    {
      "inputs": [
        {
          "internalType": "address",
          "name": "_participant",
          "type": "address"
        }
      ],
      "name": "getCertificado",
      "outputs": [
        {
          "internalType": "string",
          "name": "",
          "type": "string"
        },
        {
          "internalType": "uint256",
          "name": "",
          "type": "uint256"
        },
        {
          "internalType": "string",
          "name": "",
          "type": "string"
        },
        {
          "internalType": "bool",
          "name": "",
          "type": "bool"
        }
      ],
      "stateMutability": "view",
      "type": "function",
      "constant": true
    }
  ],
  "bytecode": "0x608060405234801561000f575f80fd5b50610d648061001d5f395ff3fe608060405234801561000f575f80fd5b5060043610610049575f3560e01c806216e5261461004d5780636e4bccc0146100805780639f08e551146100b0578063a8546ff3146100cc575b5f80fd5b61006760048036038101906100629190610651565b6100ff565b6040516100779493929190610738565b60405180910390f35b61009a60048036038101906100959190610651565b610242565b6040516100a79190610789565b60405180910390f35b6100ca60048036038101906100c591906108f8565b610296565b005b6100e660048036038101906100e19190610651565b610430565b6040516100f69493929190610738565b60405180910390f35b5f602052805f5260405f205f91509050805f01805461011d906109c1565b80601f0160208091040260200160405190810160405280929190818152602001828054610149906109c1565b80156101945780601f1061016b57610100808354040283529160200191610194565b820191905f5260205f20905b81548152906001019060200180831161017757829003601f168201915b5050505050908060010154908060020180546101af906109c1565b80601f01602080910402602001604051908101604052809291908181526020018280546101db906109c1565b80156102265780601f106101fd57610100808354040283529160200191610226565b820191905f5260205f20905b81548152906001019060200180831161020957829003601f168201915b505050505090806003015f9054906101000a900460ff16905084565b5f805f8373ffffffffffffffffffffffffffffffffffffffff1673ffffffffffffffffffffffffffffffffffffffff1681526020019081526020015f206003015f9054906101000a900460ff169050919050565b5f808573ffffffffffffffffffffffffffffffffffffffff1673ffffffffffffffffffffffffffffffffffffffff1681526020019081526020015f206003015f9054906101000a900460ff1615610322576040517f08c379a000000000000000000000000000000000000000000000000000000000815260040161031990610a61565b60405180910390fd5b6040518060800160405280848152602001838152602001828152602001600115158152505f808673ffffffffffffffffffffffffffffffffffffffff1673ffffffffffffffffffffffffffffffffffffffff1681526020019081526020015f205f820151815f0190816103959190610c1c565b506020820151816001015560408201518160020190816103b59190610c1c565b506060820151816003015f6101000a81548160ff0219169083151502179055509050508373ffffffffffffffffffffffffffffffffffffffff167f017459a1140d721561d21f11de3f71dde5d1d33a4b1c1942962c59ecc8684dbe84848460405161042293929190610ceb565b60405180910390a250505050565b60605f60605f805f808773ffffffffffffffffffffffffffffffffffffffff1673ffffffffffffffffffffffffffffffffffffffff1681526020019081526020015f206040518060800160405290815f8201805461048d906109c1565b80601f01602080910402602001604051908101604052809291908181526020018280546104b9906109c1565b80156105045780601f106104db57610100808354040283529160200191610504565b820191905f5260205f20905b8154815290600101906020018083116104e757829003601f168201915b5050505050815260200160018201548152602001600282018054610527906109c1565b80601f0160208091040260200160405190810160405280929190818152602001828054610553906109c1565b801561059e5780601f106105755761010080835404028352916020019161059e565b820191905f5260205f20905b81548152906001019060200180831161058157829003601f168201915b50505050508152602001600382015f9054906101000a900460ff1615151515815250509050805f01518160200151826040015183606001519450945094509450509193509193565b5f604051905090565b5f80fd5b5f80fd5b5f73ffffffffffffffffffffffffffffffffffffffff82169050919050565b5f610620826105f7565b9050919050565b61063081610616565b811461063a575f80fd5b50565b5f8135905061064b81610627565b92915050565b5f60208284031215610666576106656105ef565b5b5f6106738482850161063d565b91505092915050565b5f81519050919050565b5f82825260208201905092915050565b5f5b838110156106b3578082015181840152602081019050610698565b5f8484015250505050565b5f601f19601f8301169050919050565b5f6106d88261067c565b6106e28185610686565b93506106f2818560208601610696565b6106fb816106be565b840191505092915050565b5f819050919050565b61071881610706565b82525050565b5f8115159050919050565b6107328161071e565b82525050565b5f6080820190508181035f83015261075081876106ce565b905061075f602083018661070f565b818103604083015261077181856106ce565b90506107806060830184610729565b95945050505050565b5f60208201905061079c5f830184610729565b92915050565b5f80fd5b5f80fd5b7f4e487b71000000000000000000000000000000000000000000000000000000005f52604160045260245ffd5b6107e0826106be565b810181811067ffffffffffffffff821117156107ff576107fe6107aa565b5b80604052505050565b5f6108116105e6565b905061081d82826107d7565b919050565b5f67ffffffffffffffff82111561083c5761083b6107aa565b5b610845826106be565b9050602081019050919050565b828183375f83830152505050565b5f61087261086d84610822565b610808565b90508281526020810184848401111561088e5761088d6107a6565b5b610899848285610852565b509392505050565b5f82601f8301126108b5576108b46107a2565b5b81356108c5848260208601610860565b91505092915050565b6108d781610706565b81146108e1575f80fd5b50565b5f813590506108f2816108ce565b92915050565b5f805f80608085870312156109105761090f6105ef565b5b5f61091d8782880161063d565b945050602085013567ffffffffffffffff81111561093e5761093d6105f3565b5b61094a878288016108a1565b935050604061095b878288016108e4565b925050606085013567ffffffffffffffff81111561097c5761097b6105f3565b5b610988878288016108a1565b91505092959194509250565b7f4e487b71000000000000000000000000000000000000000000000000000000005f52602260045260245ffd5b5f60028204905060018216806109d857607f821691505b6020821081036109eb576109ea610994565b5b50919050565b7f436572746966696361646f206a612065786973746520706172612065737365205f8201527f7061727469636970616e74650000000000000000000000000000000000000000602082015250565b5f610a4b602c83610686565b9150610a56826109f1565b604082019050919050565b5f6020820190508181035f830152610a7881610a3f565b9050919050565b5f819050815f5260205f209050919050565b5f6020601f8301049050919050565b5f82821b905092915050565b5f60088302610adb7fffffffffffffffffffffffffffffffffffffffffffffffffffffffffffffffff82610aa0565b610ae58683610aa0565b95508019841693508086168417925050509392505050565b5f819050919050565b5f610b20610b1b610b1684610706565b610afd565b610706565b9050919050565b5f819050919050565b610b3983610b06565b610b4d610b4582610b27565b848454610aac565b825550505050565b5f90565b610b61610b55565b610b6c818484610b30565b505050565b5b81811015610b8f57610b845f82610b59565b600181019050610b72565b5050565b601f821115610bd457610ba581610a7f565b610bae84610a91565b81016020851015610bbd578190505b610bd1610bc985610a91565b830182610b71565b50505b505050565b5f82821c905092915050565b5f610bf45f1984600802610bd9565b1980831691505092915050565b5f610c0c8383610be5565b9150826002028217905092915050565b610c258261067c565b67ffffffffffffffff811115610c3e57610c3d6107aa565b5b610c4882546109c1565b610c53828285610b93565b5f60209050601f831160018114610c84575f8415610c72578287015190505b610c7c8582610c01565b865550610ce3565b601f198416610c9286610a7f565b5f5b82811015610cb957848901518255600182019150602085019450602081019050610c94565b86831015610cd65784890151610cd2601f891682610be5565b8355505b6001600288020188555050505b505050505050565b5f6060820190508181035f830152610d0381866106ce565b9050610d12602083018561070f565b8181036040830152610d2481846106ce565b905094935050505056fea26469706673582212209254b68fab1dc3ba5a9c105c9514f489b1735f138b67c3379e08e3a118004f0764736f6c63430008150033",
  "immutableReferences": {},
  "source": "// SPDX-License-Identifier: MIT\r\npragma solidity ^0.8.0;\r\n\r\ncontract CertificateContract {\r\n    struct Certificate {\r\n        string nomeEvento;\r\n        uint horasComplementares;\r\n        string nomeParticipante;\r\n        bool exists;\r\n    }\r\n\r\n    mapping(address => Certificate) public certificates;\r\n\r\n    event CertificateIssued(address indexed participant, string nomeEvento, uint horasComplementares, string nomeParticipante);\r\n\r\n    function gerarCertificado(address _participant, string memory _nomeEvento, uint _horasComplementares, string memory _nomeParticipante) public {\r\n        require(!certificates[_participant].exists, \"Certificado ja existe para esse participante\");\r\n\r\n        certificates[_participant] = Certificate({\r\n            nomeEvento: _nomeEvento,\r\n            horasComplementares: _horasComplementares,\r\n            nomeParticipante: _nomeParticipante,\r\n            exists: true\r\n        });\r\n\r\n        emit CertificateIssued(_participant, _nomeEvento, _horasComplementares, _nomeParticipante);\r\n    }\r\n\r\n    function validarCertificado(address _participant) public view returns (bool) {\r\n        return certificates[_participant].exists;\r\n    }\r\n\r\n    function getCertificado(address _participant) public view returns (string memory, uint, string memory, bool) {\r\n        Certificate memory cert = certificates[_participant];\r\n        return (cert.nomeEvento, cert.horasComplementares, cert.nomeParticipante, cert.exists);\r\n    }\r\n}\r\n",
  "sourcePath": "C:\\Users\\paulo\\OneDrive\\Documentos\\repositorios\\Segurana\\contracts\\Evento.sol",
  "compiler": {
    "name": "solc",
    "version": "0.8.21+commit.d9974bed.Emscripten.clang"
  },
  "schemaVersion": "3.4.16",
  "updatedAt": "2024-06-18T01:52:18.012Z",
  "networkType": "ethereum",
  "devdoc": {
    "kind": "dev",
    "methods": {},
    "version": 1
  },
  "userdoc": {
    "kind": "user",
    "methods": {},
    "version": 1
  }
}